:020000040800F2
:100000001007002001010008090100080B01000889
:100010000D0100080F010008110100080000000098
:1000200000000000000000000000000013010008B4
:1000300015010008000000001701000891210008C8
:100040001B0100081B0100081B0100081B01000820
:100050001B0100081B0100081B0100081B01000810
:100060001B0100081B0100081B0100081B01000800
:100070001B0100081B0100081B010008ED08000817
:10008000F90800081B0100081B0100081B010008FB
:100090001B0100081B0100081B0100081B010008D0
:1000A0001B010008512200081B0100081B01000869
:1000B0005D2200081B0100081B0100081B0100084D
:1000C0001B0100081B0100081B0100081B010008A0
:1000D0001B010008D52700082528000875280008FE
:1000E0001B0100081B0100081B010008DFF80CD0F1
:1000F00000F090F900480047553000081007002034
:100100000648804706480047FEE7FEE7FEE7FEE7B1
:10011000FEE7FEE7FEE7FEE7FEE7FEE7092200084E
:10012000ED000008202A04DB203A21FA02F0002129
:10013000704721FA02F3D040C2F1200291400843F7
:1001400019467047F0B480EA0102D40F4200B2EBC6
:10015000410F02D20246084611464A0042D0C30D62
:10016000DDB2C1F3C752AD1A202D35DAC1F3160145
:1001700041F4000204B15242C5F1200602FA06F130
:100180002A411044B3EBD05F23D0C4B1012DA0EBC2
:10019000C35009DCF0BC4FF0004202EAC352DBB2AC
:1001A00000F5000000F007B9400000F1807000EB9E
:1001B000C350A0F1807040EAD170490009E04908BD
:1001C00041EAC071A0EBC35000F50000400800EB0D
:1001D000C350F0BC00F0E6B86142012202EB4101DD
:1001E000001BF6E7F0BC704781F00041AAE780F001
:1001F0000040A7E780EA010210B502F0004340008A
:1002000022D04A001FD0010E01EB1261C0F356004C
:10021000C2F3560240F4000042F40002A0FB0220A8
:1002200000047F39140400D0401C50EA124001D46D
:100230004000491EC2B20C0604EBD010401C40081E
:10024000802A02D003E0002010BD20F00100002928
:1002500000DA0020184310BD30B480EA010202F039
:10026000004530F0004221F0004013D090B1C30DA2
:10027000D40DC2F31601C0F31600E41A41F40001D4
:1002800040F400027D34914201D3641C00E0490037
:10029000002C02DA30BC002070474FF4000000232D
:1002A000914201D3891A034340084FEA4101F7D133
:1002B00051B1914202D14FF0004105E002D24FF01E
:1002C000010101E06FF0010103EBC450284430BC90
:1002D00000F068B8420005D0C0F3C75252429142C4
:1002E00001DC0020704700EBC1507047C10F80EA6D
:1002F000E0700844CA079623002100F05CB800F0C3
:10030000004220F00040C10DC0F3160040F4000090
:100310007F2901DA00207047962903DCC1F196019C
:10032000C84001E096398840002AF4D04042704726
:1003300000F0004230F000400AD0C10D01F56071BC
:10034000C0F3160042EA0151C2084007114370474A
:1003500000200146704701F0004330B421F0004115
:1003600050EA010206D00A0DA2F56072C1F3130132
:10037000002A02DC30BC00207047440F44EAC1046C
:10038000C100E01830BC00EBC25000F00BB8000018
:10039000002801DBC0F10040002901DBC1F1004170
:1003A000884270470029A8BF7047401C490008BF19
:1003B00020F00100704710B4B0FA80FC00FA0CF095
:1003C00050EA010404BF10BC704749B1CCF12004CD
:1003D00021FA04F411FA0CF118BF0121214308435A
:1003E000A3EB0C01CB1D4FEA00614FEA102042BF86
:1003F000002010BC704700EBC35010440029A4BF7C
:1004000010BC7047401C490008BF20F0010010BC20
:1004100070470000064C074D06E0E06840F001031D
:1004200094E8070098471034AC42F6D3FFF762FE19
:10043000203A0008403A00082DE9FE4F804681EA44
:100440000300C00F0C46009021F0004123F000454E
:10045000B8EB0200A94105D24046214690461C4611
:100460000B46024623F00040104347D0270DC7F348
:100470000A00C3F30A510290401A019040286BDA37
:10048000C3F3130040F4801B0098924620B1002370
:10049000D2EB030A63EB0B0B01985946C0F1400203
:1004A000504600F0A5F906460D4650465946019AB9
:1004B00000F0ADF910EB08006141002487EA115209
:1004C00084EAE7731A4340D0009A62B3019A012A82
:1004D0004FEA075215DC001B61EB02014FF00042AE
:1004E00002EA0752CDE90042001C41F58011324674
:1004F0002B4600F0ADF903B0BDE8F08F4046214631
:10050000F9E7001B61EB0201001C41F580130018A4
:100510005B412018A2F5001747EB030140EAD570B4
:10052000B6196D4111E06D084FEA360645EAC0750F
:100530004FEA0752001B61EB0201001C41F58011DC
:1005400049084FEA30000019514132462B4603B0AA
:10055000BDE8F04F00F06DB9009801224000002383
:10056000D0EB020263EBE073009821464FEAE0749F
:10057000B8EB000061EB0401E9E783F000435BE7BF
:1005800081F0004158E72DE9FE4F81EA030404F0B1
:10059000004421F0004100944FF0000B23F0004391
:1005A00050EA01045ED052EA03045BD0C3F30A545C
:1005B000C1F30A552C44A4F2F3340194A0FB025475
:1005C000C1F3130141F48011C3F3130343F4801307
:1005D00001FB024400FB034E840A970A44EA81545B
:1005E00047EA8357A4FB076802958D0A05FB078538
:1005F0004FEA932C04FB0C542705029D4FEA065842
:1006000047EA1637B5EB08056EEB070C870E920E1E
:1006100047EA811742EA8312A7FB0201B6EB0B01FE
:1006200064EB00042B0D43EA0C335E1844EB1C50C2
:10063000DA465146E7FB0201C5F313044FEA0B33D8
:1006400043EA14534FEA0432019C43EA0603A4F13F
:100650000C040294009CCDE900B400F0F9F803B05A
:10066000BDE8F08F00200146F9E72DE9F04D81EA61
:10067000030404F0004B21F0004514464FF0000A3B
:1006800023F0004150EA050220D054EA01021DD0B7
:10069000C5F30A570246C5F31303C1F31300C1F3B0
:1006A0000A5640F4801543F48013A7EB0608101B8C
:1006B000D64608F2FD3873EB050002D308F10108B5
:1006C00001E092185B41B8F1000F03DA0020014607
:1006D000BDE8F08D00204FF48011064684460EE000
:1006E000171B73EB050705D3121B63EB05030643CA
:1006F0004CEA010C49084FEA300092185B4150EA7D
:100700000107EDD152EA030012D082EA040083EA25
:100710000501084305D0101BAB4106D2012200237E
:1007200006E000224FF0004302E06FF00102531098
:100730001AEB06004CEB085110EB0A0041EB0B01E1
:10074000BDE8F04D00F075B870B521F000430343EB
:100750000CD0C1F30A550024D5EB040564EB040367
:10076000D617AD1AB34102DB0020014670BD201838
:1007700041EB025170BD0EB5C10F80EAE070084434
:10078000CA07002140F233438DE80E000A460B46AB
:1007900000F05EF803B000BD0EB540F233410291A7
:1007A0000021CDE900110A460B4600F051F803B0D4
:1007B00000BD70B5C1F30A5201F000450024C1F339
:1007C000130140F2FF3341F480119A4201DA002014
:1007D00070BD40F233439A42A2F2334203DC5242EC
:1007E000FFF7A0FC00E090402C43F1D0404270BDE8
:1007F000202A04DB203A00FA02F1002070479140E1
:10080000C2F1200320FA03F3194390407047202AD5
:1008100006DBCB17203A41FA02F043EAE07306E028
:1008200041FA02F3D040C2F1200291400843194638
:10083000704710B5141E73F1000408DA401C41F132
:10084000000192185B411A4301D120F0010010BD54
:100850002DE9F04D92469B4611B1B1FA81F202E0CA
:10086000B0FA80F220329046FFF7C2FF04460F46EE
:1008700040EA0A0041EA0B0153465A46084313D0A6
:10088000114653EA010019D0C8F140025046FFF763
:1008900049FC05460E46504659464246FFF7A8FF1A
:1008A000084305D0012004E020463946BDE8F08D1C
:1008B0000020054346EAE0762C4337430A98630557
:1008C000E40AA0EB08000022FD0A44EA47540A307B
:1008D00002D500200146E9E7010510196941DDE96B
:1008E000084500196941BDE8F04DA2E7014800F054
:1008F00083B8000070020020014800F07DB80000BD
:10090000B402002030B590F840500124AC40C56BD3
:100910006C60046863604368102B036803D09960BF
:100920000068C26030BD9A600068C16030BD016877
:100930000A6822F00E020A6001680A6822F00102C9
:100940000A6090F84020C36B012101FA02F25A605C
:1009500080F82110002180F8201008467047000020
:1009600010B590F821100024022903D004218163DE
:1009700001243DE001680A6822F00E020A60016865
:100980000A6822F001020A601A4A0168914201D104
:10099000012121E0174A1432914201D110211BE0BC
:1009A000144A2832914201D1891515E0114A3C328E
:1009B000914201D189140FE00E4A5032914202D186
:1009C0004FF4803108E00B4A6432914202D14FF477
:1009D000801101E04FF08071064A083A5160012110
:1009E00080F82110002180F82010416B01B1884768
:1009F000204610BD080002402DE9F05FC16B0C6875
:100A000001680B68D0F840C0042202FA0CF2494D8C
:100A1000DFF824A1494E4A4FDFF828B1DFF828E17A
:100A200022422CD05A072AD50A68920603D40A68B3
:100A300022F004020A600168A94201D1042219E0EF
:100A4000514501D1402215E0B14202D14FF48062FC
:100A500010E0B94202D14FF480420BE0594502D177
:100A60004FF4802206E0714502D14FF4800201E08C
:100A70004FF080622F4908394A60C16A3BE04FF06D
:100A8000020808FA0CF818EA040F4FF000094FF0BA
:100A9000010235D05FEA837832D50B689B0605D416
:100AA0000B6823F00A030B6080F821200168A9423B
:100AB00001D1022219E0514501D1202215E0B142B5
:100AC00002D14FF4007210E0B94202D14FF400524B
:100AD0000BE0594502D14FF4003206E0714502D1D6
:100AE0004FF4001201E04FF00072124908394A60D9
:100AF00080F82090816A00291AD0BDE8F05F08478D
:100B0000082505FA0CF5254212D01B0710D50B68F5
:100B100023F00E030B6090F84010C36B02FA01F152
:100B20005960826380F8212080F82090016BE2E711
:100B3000BDE8F09F080002401C0002403000024067
:100B400044000240580002406C00024030B548B3F7
:100B500008C8154914221944B1FBF2F18900C16398
:100B600012498163022141771A6843F6F0718A4382
:100B7000D0E900142143D0E902452C432143046904
:100B800021434469214384692143114319600021B1
:100B900041628162C1620163416301224277017750
:100BA000084630BD012030BDF8FFFDBF0000024007
:100BB00070B5044690F82000002501280CD00120D3
:100BC00084F8200094F821600020012E06D084F8DB
:100BD00020000225284670BD022070BD022684F840
:100BE0002160A0632068066826F0010606602046A2
:100BF000FFF788FEE06A00282068016802D041F013
:100C00000E0106E021F0040101602068016841F056
:100C10000A0101602068016841F001010160D9E723
:100C20002DE9F84FDFF890A100220AF1040B1446D9
:100C300001274FF00F090BF1040E00BF0B6807FAF4
:100C400004F52B40AB4274D1DFF870C14E68A6EBBF
:100C50000C0866452BD00DDC032E34D005DC36B3F2
:100C6000012E19D0022E2FD11BE0112E16D0122EDC
:100C70002AD119E0B8F5881F19D006DCB8F5803FF5
:100C800015D0B8F5801F1FD111E0B8F5001F0ED0A8
:100C9000B8F5041F18D10AE0CA6815E0CA68121D29
:100CA00012E0CA6808320FE0CA680C320CE08A68A9
:100CB0002AB1012A4FF0080203D0456104E0042262
:100CC00002E0056100E00022FF2B01D8064601E0AA
:100CD00000F104064FEA840501D9A5F12005D6F8F4
:100CE00000C009FA05F82CEA080C02FA05F54CEAEE
:100CF000050CC6F800C04D68ED0057D5304DAE6903
:100D000046F00106AE61AD6924F0030605F0010569
:100D100000952C4D06EB050CDCF80850A6074FEAB1
:100D2000167809FA08F6B543274EB04202D10026DC
:100D300010E03BE0254EB04201D101260AE0244EEE
:100D4000B04201D1022605E0224EB04201D1032675
:100D500000E0042606FA08F62E43CCF808604D6839
:100D6000DAF80060ED03554601D51E4300E09E43CE
:100D70002E604D68DBF80060AD035D4601D51E4373
:100D800000E09E432E604D68DEF80060ED0275467F
:100D900001D51E4300E09E432E604D68AD020E4D0E
:100DA0002E6801D51E4300E09E432E60641C102C6B
:100DB000FFF444AFBDE8F88F0004014000001110BB
:100DC000001002400000014000080140000C0140FA
:100DD00000100140001401400C040140C2684A4068
:100DE000C26070470AB1016170470904FBE7000067
:100DF0000148006870470000A40000200248016814
:100E0000491C016070470000A4000020074810B58D
:100E1000016841F010010160032000F093F8002008
:100E200000F006F800F018F8002010BD0020024085
:100E300010B5044607484FF47A710068B0FBF1F032
:100E400000F027FB00222146501E00F05BF8002036
:100E500010BD0000A8000020224808B5816941F0BB
:100E600001018161816901F001010091C16941F0D5
:100E70008051C161C06900F080500090032000F0F3
:100E800061F8002211466FF00B0000F03BF80022E1
:100E900011466FF00A0000F035F8002211466FF09D
:100EA000090000F02FF800221146501F00F02AF828
:100EB00000221146101F00F025F800221146901E56
:100EC00000F020F800221146501E00F01BF80648E2
:100ED000416821F0E0614160416841F0007141608A
:100EE00008BD0000001002400000014000F01F0299
:100EF000012191404009800000F1E020C0F800117C
:100F000070470000F0B40E4B1B680C46C3F302237D
:100F1000C3F10705042D00D90425191D072901D2A5
:100F2000002300E0DB1E012606FA05F1491E2140E0
:100F300099409E40761E16403143F0BC01F0C0B887
:100F40000CED00E0064900F0070208684FF6FF03C9
:100F5000184040EA0220034A10430860704700002E
:100F60000CED00E00000FA052DE9F047DFF83C81C8
:100F700005460E46D8F8000000F00700B0420CD23B
:100F8000D8F8001021F007013143C8F80010D8F854
:100F9000000000F00700B04263D12878444C80077D
:100FA00005D56068A96820F0F000084360602878E3
:100FB000C00745D06868012816D02168022816D0DD
:100FC000890700294DDA616821F00301014361605E
:100FD000FFF70EFF6968074641F2883001290FD0FC
:100FE0000229814619D027E021688903E9E78901B0
:100FF000E7E700BFFFF7FCFEC11B494501D918E038
:1010000081466068C0F381000128F3D118E000BF79
:10101000FFF7EEFEC11B49450BD86068C0F38100A5
:101020000228F5D10CE000BFFFF7E2FEC11B4945E5
:1010300002D90320BDE8F087606810F00C0FF3D1EF
:10104000D8F80010404601F00701B1420BD9016801
:1010500021F0070131430160006800F00700B04251
:1010600001D00120E6E72878400705D56068E968E7
:1010700020F4E060084360602878000706D56068C7
:10108000296920F4605040EAC100606000F03CF83B
:101090006168084AC1F30311515CC8400649086001
:1010A0000020FFF7C5FE0020C4E70000002002403A
:1010B00000100240E4380008A80000200148006841
:1010C00070470000A80000200448054900684968EE
:1010D000044AC1F30221515CC8407047A8000020B7
:1010E00000100240F43800080448054900684968C7
:1010F000044AC1F3C221515CC8407047A8000020D7
:1011000000100240F438000810B512A385B00FCBD0
:101110008DE80F0013A0144B006804905A68134820
:1011200002F00C0104290FD008290DD1C2F3834429
:10113000D2031DF8041009D55A6804ABC2F340422B
:101140009A5CB0FBF2F0484305B010BD0848484334
:10115000FAE7000002030405060708090A0B0C0D54
:101160000E0F1010010200000010024000127A0061
:1011700000093D002DE9F84F04460078B94DC0073D
:1011800048D06868C0F38100012807D06868C0F3C0
:101190008100022809D16868C00306D52868800349
:1011A00038D5606800286FD034E06068B0F5803FC3
:1011B0000BD010B1B0F5A02F11D0286820F48030EA
:1011C0002860286820F4802002E0286840F48030FD
:1011D0002860606888B1FFF70BFE064609E02868C2
:1011E00040F480202860F0E7FFF702FE801B6428AF
:1011F00075D828688003F7D50CE0FFF7F9FD06469F
:1012000005E000BFFFF7F4FD801B6428F0D82868D4
:101210008003F7D42078944E80074FF001094FF0F7
:1012200000083BD5686810F00C0F07D06868C0F361
:101230008100022809D16868C00306D428688007A5
:1012400014D5206901281FD110E02069B0B1C6F87B
:101250000090FFF7CDFD074605E000BFFFF7C8FD92
:10126000C01B0228C4D828688007F7D528686169A0
:1012700020F0F80040EAC10028600FE0C6F80080C6
:10128000FFF7B6FD074606E0E9E000BFFFF7B0FD57
:10129000C01B022823D828688007F7D420780007CD
:1012A0002CD57248A169D9B1C0F80090FFF7A0FD14
:1012B000074604E0FFF79CFDC01B02280FD8686AB0
:1012C0008007F7D56A484FF4FA510068B0FBF1F097
:1012D000009000BF0098411E0091FAD20EE080E01D
:1012E000C0F80080FFF784FD074604E0FFF780FDAB
:1012F000C01B022875D8686A8007F7D42078400799
:1013000060D5E8690027C00008D4E86940F0805043
:10131000E861E869012700F08050009055480168B5
:10132000C90513D40168834641F480710160FFF759
:101330005FFD824606E000BFFFF75AFDA0EB0A0002
:1013400064284ED8DBF80000C005F5D5E068012818
:101350000AD008B1052813D0286A20F001002862BD
:10136000286A20F0040002E0286A40F001002862A8
:10137000E06841F2883B98B1FFF73AFD82460BE006
:10138000286A40F004002862EEE700BFFFF730FD56
:10139000A0EB0A0159455AD8286A8007F6D50CE017
:1013A000FFF726FD824605E0FFF722FDA0EB0A01CC
:1013B00059454CD8286A8007F6D41FB1E86920F057
:1013C0008050E861E06988B36968C1F3810102294E
:1013D00045D00228C6F8608004D0FFF709FD044616
:1013E00038E034E0FFF704FD074604E0FFF700FDB6
:1013F000C01B02282BD828688001F7D4206AB0F5DA
:10140000803F05D16868A16820F400300843686017
:10141000D4E908010843696821F47411084368603D
:10142000C6F86090FFF7E4FC044606E015E000BF54
:10143000FFF7DEFC001B022809D828688001F7D5D9
:101440000BE000BFFFF7D4FC001B022802D90320E9
:10145000BDE8F88F28688001F4D40020F8E7012067
:10146000F6E70000001002400000424280044242C1
:10147000A8000020007000404FF0E0210428086917
:1014800003D020F004000861704740F00400FAE740
:10149000704710B5401EB0F1807F01D3012010BD10
:1014A0004FF0E02460610F21601700F009FE00207A
:1014B000A06107202061002010BD10B5FFF7E8FFF4
:1014C00010BD7047704730B590F83C20012A20D0FD
:1014D000012280F83C20022380F83D3003685C68DC
:1014E00024F070045C6003685C680D682C435C60E9
:1014F00003689C6824F080049C6003689C684968C9
:101500000C439C6080F83D20002180F83C10084688
:1015100030BD022030BD10B5040003D094F83D006A
:1015200010B107E0012010BD002084F83C002046E7
:1015300000F00CF8022084F83D00211D206800F026
:1015400093FE012084F83D00002010BD08B5154A27
:101550000168154891420ED1816941F400618161B1
:101560008069002200F40060009011461920FFF706
:10157000C9FC192010E0B1F1804F11D1C16941F0CF
:101580000101C161C069002200F001000090114614
:101590001C20FFF7B7FC1C20BDE80840FFF7A6BCE5
:1015A00008BD0000002C0140001002400168CA681C
:1015B00042F00102CA600068016841F00101016067
:1015C0000020704770B5044690F83C00012817D001
:1015D000012584F83C50022084F83D002068826890
:1015E00022F0770222F47F4282600868502837D0C8
:1015F0000DDC202859D005DC88B3102841D151E0FA
:10160000022070BD302853D040283AD13FE06028F6
:101610002ED070280BD0B0F5805F03D0B0F5005FFE
:101620002FD110E02068816821F0070115E0CB6818
:10163000D1E90121206800F058FE2168886840F057
:10164000770088601DE0CB68D1E90121206800F0B7
:101650004CFE2068816841F48041816011E01EE009
:10166000CA684968206800F0F5FE5021206806E04D
:10167000CA684968206800F0FEFE6021206800F01A
:101680003EFE84F83D50002084F83C0070BDCA68DE
:101690004968206800F0DEFE40212068EFE7002165
:1016A0002068ECE710212068E9E720212068E6E7C0
:1016B00030212068E3E7704770B50446006801698F
:1016C0004FF00005C943890715D4C168C94389078C
:1016D00011D4E91E0161012020772068806980070C
:1016E000204602D0FFF7E7FF04E000F0B7F82046FD
:1016F00000F04CF9257720680169C943490717D4E0
:10170000C168C943490713D46FF004010161022085
:1017100020772068806910F4407F204602D0FFF7D0
:10172000CAFF04E000F09AF8204600F02FF9257770
:1017300020680169C943090716D4C168C94309076C
:1017400012D46FF008010161042020772068C0697D
:101750008007204602D0FFF7AEFF04E000F07EF8DD
:10176000204600F013F9257720680169C943C906AE
:1017700017D4C168C943C90613D46FF010010161C1
:10178000082020772068C06910F4407F204602D0EE
:10179000FFF791FF04E000F061F8204600F0F6F852
:1017A000257720680169C943C90708D1C168C943C1
:1017B000C90704D1891E0161204600F001F92068A3
:1017C0000169C943090609D4C168C943090605D49A
:1017D0006FF0800101612046FFF773FE2068016908
:1017E000C943490609D4C168C943490605D46FF005
:1017F00040010161204600F017F920680169C943E2
:1018000089060BD4C168C943890607D46FF020014B
:1018100001612046BDE87040FFF754BE70BD000076
:101820001FB500680A49884210D10224C020CDE9C2
:101830000004694607480394FFF7F2F90320CDE955
:101840000004694604480394FFF7EAF91FBD00004D
:101850000004004000080140000C0140704770B5D2
:10186000044690F83C000D4601280DD0012684F86E
:101870003C60022084F83D0042B1042A18D0082AB6
:101880002AD00C2A4DD139E0022070BD206800F02A
:101890003FFD2068816941F008018161206881690C
:1018A00021F004018161206881692A69114311E0F6
:1018B000206800F055FD2068816941F40061816174
:1018C0002068816921F480618161206881692A69C9
:1018D00041EA0221816124E0206800F06DFD20686A
:1018E000C16941F00801C1612068C16921F00401AA
:1018F000C1612068C1692A69114311E0206800F0C4
:1019000087FD2068C16941F40061C1612068C16937
:1019100021F48061C1612068C1692A6941EA02211C
:10192000C16184F83D60002084F83C0070BD10B5B2
:10193000040003D094F83D0010B107E0012010BD71
:10194000002084F83C00204600F00CF8022084F8C7
:101950003D00211D206800F087FC012084F83D0037
:10196000002010BD08B500680649884208D1064825
:10197000C16941F00201C161C06900F0020000903C
:1019800008BD000000040040001002407047000045
:1019900010B504460068012200F09CFC074920684D
:1019A000884203D1416C41F40041416420680168E0
:1019B00041F001010160002010BD0000002C014039
:1019C00070B51549054600680968144C884210D165
:1019D0001148052204F12C01C03000F030FA052234
:1019E00004F12C010E4800F02AFA207940F00200A0
:1019F0002071094928684031096888420AD1207954
:101A00004FF4805140F001002071BDE8704005485E
:101A1000FFF7E4B970BD0000C800002000000020FE
:101A2000C801002000080140704710B50446006856
:101A3000416994F83920C1F3C011212A0BD151B169
:101A4000416921F080014161206B08B1FEF76FFF11
:101A5000204600F080FD2068416994F83A20C1F3E7
:101A60008011222A0BD151B1416921F0400141611D
:101A7000606B08B1FEF75BFF204600F05EFD0020C2
:101A800010BD704770B5026804461068D16853698C
:101A900010F00F0F50D003F0010501F4907635439C
:101AA0005DD0C20705D0CA0503D5E26B42F0010242
:101AB000E263420705D5DA0703D0E26B42F0020287
:101AC000E263820705D5DA0703D0E26B42F0040235
:101AD000E263020705D5DA0703D0E26B42F00802A1
:101AE000E263E26B002A33D0800604D5880602D573
:101AF000204600F039FD20684069E16BC0F380109A
:101B0000090700D428B3204600F017FD206841697A
:101B100049061AD5416921F040014161606BA0B1CD
:101B20001B494163606BFEF71BFF002810D0606B00
:101B3000416BBDE870400847830610D58B060ED573
:101B40002046BDE8704000F00FBD2046FFF799FF2A
:101B500070BD2046FFF795FF0020E06370BD0306CF
:101B600006D50B0604D52046BDE8704000F000BE47
:101B70004006F3D54806F1D5D168204621F0400152
:101B8000D160202184F8391000F078F970BD000090
:101B90009B24000870B5040004D094F83900002597
:101BA00010B106E0012070BD84F83850204600F0E6
:101BB00023F8242084F839002068C16821F40051FA
:101BC000C160204600F01CFD2068016921F49041AD
:101BD00001612068416921F02A0141612068C168E2
:101BE00041F40051C160E563202084F8390084F895
:101BF0003A00002070BD00002DE9F0410546DFF8F5
:101C000010C103680024434802210322424E80276A
:101C100086B04FF4806863452CD1836943F48043D8
:101C200083618069039200F4804004900802CDE94A
:101C3000000169463046FEF7F3FFCDE900846946AE
:101C400030460294FEF7ECFF354E3448C6E90004F6
:101C5000C6E9024734617461B4613046F461FEF74D
:101C600075FF10B14FF4837132E06E63756206B098
:101C7000BDE8F081DFF8ACC063452DD1C36943F402
:101C80000033C361C069039200F400300490042063
:101C9000CDE9000169463046FEF7C2FF0820CDE9D4
:101CA0000004694630460294FEF7BAFF1B481E4EF8
:101CB0001430C6E90004C6E9024734617461B461B6
:101CC0003046F461FEF742FF0028CED040F23111D9
:101CD00016A000F00FFEC8E71B4DAB42C7D1C36989
:101CE00043F48023C361C069CDE9008100F4802002
:101CF000CDE90320154D69462846FEF791FFE8140B
:101D0000CDE90004694628460294FEF789FFAEE754
:101D10000038014000100240000801405800024015
:101D20007002002000440040B40200202E2E2F53E9
:101D300072632F73746D3332663178785F68616CCB
:101D40005F6D73702E63000000480040000C01407E
:101D5000F8B5044690F83A0020283CD1C1B3BAB394
:101D600094F83800012836D0012084F83800A162A8
:101D7000A2850025E563222084F83A00636B1748AA
:101D80009862636B1648D862636B16481863606B81
:101D9000134645630846666B216802463046091DB6
:101DA000FEF706FF206801684168009184F838500A
:101DB000C16841F48071C1602068416941F001014E
:101DC00041612068416941F0400141610020F8BD56
:101DD000FFE70120FBE70220F9E70000F5240008F7
:101DE00031250008AB24000890F83A30202B22D18E
:101DF000F9B1F2B190F83830012B1CD081628285A4
:101E0000C2850021C163222280F83A2080F8381070
:101E10000168CA6842F48072CA6001684A6942F087
:101E200001024A610068C16841F02001C1600020E0
:101E3000704701207047022070477047704790F844
:101E40003930202B18D1A9B1A2B190F83830012B2C
:101E500012D001628284C2840021C163212280F8F1
:101E6000392080F838100068C16841F08001C160F5
:101E70000020704701207047022070477047000023
:101E80002DE9F041174E4FF48041174D4F000446A5
:101E9000B04209D200222846FEF7A4FF00223946AC
:101EA0002846FEF79FFF0AE001222846FEF79AFF28
:101EB000012239462846FEF795FF84F000440B487E
:101EC000844201DD044602E0B44200D300242046EF
:101ED000FEF715FA044600F003F92046BDE8F0418C
:101EE00000F006B900008080000C01400000404274
:101EF0002DE9F043204885B0816941F020018161DE
:101F0000816901F020010491816941F0040181613E
:101F1000816901F004010491816941F00801816146
:101F20008069DFF8588000F008004FF47044049096
:101F3000002221464046FEF755FFDFF844904FF45B
:101F40008057002239464846FEF74CFF009401AA0C
:101F500001240025022682E8700069464046FEF70B
:101F60005FFE01AA009782E8700069464846FEF7C6
:101F700057FE05B0BDE8F08300100240000C0140A0
:101F80000008014010B5144886B01249016048F6B7
:101F90009F410024C0E9011440F2E731C0E9031475
:101FA00044618461FFF7B7FA00B1FEE74FF4805057
:101FB000009069460848FFF705FB00B1FEE704946E
:101FC00004A905480594FFF77EFA002800D0FEE733
:101FD00006B010BD002C0140C800002010B5134809
:101FE00086B04FF08041016041F61F410024C0E9F6
:101FF000011440F6B831C0E903148461FFF78BFA8D
:1020000000B1FEE74FF48050009069460748FFF7A3
:10201000D9FA00B1FEE7049404A904480594FFF737
:1020200052FA002800D0FEE706B010BD08010020DB
:1020300010B522488AB02049016040F2CF21002427
:10204000C0E9011440F2CF71C0E90314802181611D
:10205000FFF76DFC00B1FEE7079407A91748089445
:10206000FFF731FA00B1FEE7602000909620CDE93D
:1020700001040022694611480494FFF7F0FB00B107
:10208000FEE7042269460D48FFF7E9FB00B1FEE7D1
:10209000082269460948FFF7E2FB00B1FEE70C227F
:1020A00069460648FFF7DBFB00B1FEE70348FFF790
:1020B000B7FB0AB010BD000000040040480100203A
:1020C0000907090E002806DA00F00F0000F1E020F1
:1020D00080F8141D704700F1E02080F8001470476C
:1020E0000249C0F1940008607047000034040040C9
:1020F0000249C0F1940008607047000040040040AD
:102100000249C0F1940008607047000038040040A4
:102110000249C0F194000860704700003C04004090
:102120002DE9F041174E4FF48051174D4F000446F2
:10213000B04209D201222846FEF754FE0122394658
:102140002846FEF74FFE0AE000222846FEF74AFE28
:10215000002239462846FEF745FE84F000440B482D
:10216000844201DD044602E0B44200D3002420464C
:10217000FEF7C5F80446FFF7C3FF2046BDE8F0416F
:10218000FFF7C6BF00008080000C01400000404205
:1021900010B5FEF733FEBDE81040FFF78EB930B53D
:1021A0008FB001210804CDE900100024029402251B
:1021B0000491CDE907504FF4E01009906846FEF70E
:1021C000D9FF00B1FEE70F20CDE90A054FF480608A
:1021D000CDE90C4002210AA80E94FEF7C5FE00B11D
:1021E000FEE7FEF76BFF4FF47A71B0FBF1F0FFF7FB
:1021F00050F90420FFF740F900221146501EFEF767
:1022000081FE0FB030BD00000D48016841F00101B2
:10221000016041680B4A1140416001680A4A11405F
:102220000160016821F480210160416821F4FE0110
:1022300041604FF41F0181600449C003086070478A
:10224000001002400000FFF8FFFFF6FE08ED00E07E
:102250000148FFF731BA0000C80000200148FFF72D
:102260002BBA000008010020F0B50268164B174C8D
:10227000174D4FF08047984205D0B84203D0A04296
:1022800001D0A84203D122F070064A683243984236
:1022900005D0B84203D0A04201D0A84203D122F415
:1022A0004074CA68224322F080044A6922430260D3
:1022B0008A68C2620A688262984201D10969016330
:1022C00001214161F0BD0000002C014000040040EC
:1022D0000008004010B50123046A8B409C4304624F
:1022E000036A8A401343036210BD10B5846842EA52
:1022F000032224F47F440A432243826010BD826893
:1023000022F070020A4342F007018160704700002A
:1023100030B5026A22F001020262026A43688469EF
:1023200024F073050C682C4322F002058A682A43C6
:102330000A4DA8420BD122F00805CA6823F4407365
:102340002A434D6922F004021D438B692B434360ED
:10235000846149684163026230BD0000002C014085
:1023600030B5026A22F010020262026A4368846990
:102370000D6824F4E64444EA05248D6822F0200226
:1023800042EA05120B4DA8420ED1CD6822F0800220
:1023900042EA05124D6923F4406343EA85038D69DF
:1023A00022F0400243EA8503436084614968816307
:1023B000026230BD002C014030B5026A22F4807206
:1023C0000262036A4268C46923F4007324F073054F
:1023D0000C682C438D6843EA05230C4DA8420ED1AE
:1023E000CD6823F4006343EA05234D6922F440528B
:1023F00042EA05128D6923F4806342EA05124260C5
:10240000C4614968C163036230BD0000002C014013
:1024100030B5026A22F480520262046A4268C369DB
:102420000D6823F4E64343EA05238D6824F4005441
:1024300044EA0534064DA84204D14D6922F4804295
:1024400042EA85124260C36149680164046230BD9A
:10245000002C014010B5036A046A24F001040462F0
:10246000846924F0F00444EA021423F00A020A43C7
:102470008461026210BD10B5036A23F01003036289
:102480008369046A23F4704343EA023224F0A00310
:1024900043EA01118261016210BD10B5406A00215A
:1024A000C185C184FFF7EDFA10BD70B5446A20689C
:1024B000406994F83910C0F3C0100025212904D1D7
:1024C00018B1E584204600F046F82068406994F889
:1024D0003A10C0F38010222904D118B1E5852046B6
:1024E00000F02BF8E06B40F01000E0632046FFF7AF
:1024F000C8FA70BD10B50146406A096809688906C6
:1025000013D40021C1850168CA6822F48072CA60B0
:1025100001684A6922F001024A6101684A6922F0B1
:1025200040024A61202180F83A10FFF786FC10BD76
:1025300010B5406AFFF782FC10BD0168CA6822F43A
:102540009072CA6001684A6922F001024A61202142
:1025500080F83A1070470168CA6822F0C002CA6069
:10256000202180F83910704710B590F83A102229D0
:1025700001D0022010BD8168B1F5805F11D00169E2
:10258000002901681FD0496801F07F03816A4A1C55
:1025900082620B70C18D491E0904090CC18518D0D7
:1025A0002BE00269816A002A0268526805D0D2B223
:1025B0000A80816A491C8162ECE7C2F308020A8042
:1025C000816A891CF7E74A68816A4B1C83620A703A
:1025D000E0E70168CA6822F02002CA600168CA68A0
:1025E00022F48072CA6001684A6922F001024A61DD
:1025F000202180F83A10FFF720FC002010BD0000D9
:102600002DE9F041044600680169E26821F4405177
:10261000114301612169A068084361690843216889
:10262000CA6841F20C639A430243CA602068416958
:10263000A26921F44071114341614C49206864252D
:10264000322688423CD1FEF74FFD00EBC00101EB82
:10265000001061688900B0FBF1F7FEF745FD00EB63
:10266000C00101EB00106168B0468900B0FBF1F0D9
:10267000B0FBF5F06FF01801484307EB800106EB63
:102680000110B0FBF5F000F0F006FEF72DFD00EBB9
:10269000C00101EB001061688900B0FBF1F0B0FBF4
:1026A000F5F006EB0016FEF71FFD00EBC00101EB95
:1026B000001061688900B0FBF1F7FEF715FD3BE003
:1026C000FEF702FD00EBC00101EB0010616889001C
:1026D000B0FBF1F7FEF7F8FC00EBC00101EB0010D6
:1026E0006168B0468900B0FBF1F0B0FBF5F06FF027
:1026F0001801484307EB800106EB0110B0FBF5F031
:1027000000F0F006FEF7E0FC00EBC00101EB00106A
:1027100061688900B0FBF1F0B0FBF5F006EB001644
:10272000FEF7D2FC00EBC00101EB001061688900EC
:10273000B0FBF1F7FEF7C8FC00EBC00101EB0010A5
:1027400061688900B0FBF1F0B0FBF5F06FF01801A3
:10275000484307EB800108EB0110B0FBF5F021685E
:1027600000F00F0030448860BDE8F081003801407F
:1027700090F83910212901D0022070478168B1F505
:10278000805F016A0BD04A1C0262026809785160BE
:10279000C18C491E0904090CC1840ED017E00988B8
:1027A0000268C1F30801516001690029016A02D081
:1027B000491C0162ECE7891CFBE70168CA6822F04A
:1027C0008002CA600068C16841F04001C160002019
:1027D0007047000008B50E48FFF754F90C480D4942
:1027E0000068884213D10168C943C9060FD4016843
:1027F000406800900648FFF718F9074800684068ED
:102800000649C0F11400087005490120087008BD90
:1028100088010020003801407002002001000020E3
:102820000000002008B50E48FFF72CF90C480D49B0
:102830000068884213D10168C943C9060FD40168F2
:10284000406800900648FFF7F0F8074800684068C5
:102850000649C0F11400087005490120087008BD40
:10286000C801002000440040B40200200300002002
:10287000020000202DE9F0411A48FFF703F919483A
:102880001949006888422AD10A2218491548FFF7D9
:10289000ABFA164B187A0D2821D1587A0A281ED186
:1028A000134F002107F10C0503F10A022C1F585C9D
:1028B00050540020165C2E54161836792654401CAD
:1028C0000428F7DB2868491C26680A29EFDBC7E9DA
:1028D0000006002001461954401C0A28FBDBBDE815
:1028E000F08100000802002000480040F8020020AB
:1028F00034000020FEE7490050EAC12018BF042040
:102900004A0D18BF40F0010040F2FF72B2EB515F78
:1029100008BF40F00200012808BF052070470000F2
:102920002DE9F74F144694B00021C4E9021115991E
:10293000079121F00045C9498D4206DC1599C4E98B
:10294000000117B00020BDE8F08FC549DFF814A3DF
:10295000A9423CDD0799C44E0029C44FC44A1599C9
:10296000534619DDFDF709FE554506D0C14AC24B55
:10297000FDF703FEC4E900010AE04FF0D352BE4B5D
:10298000FDF7FBFD32463B46FDF7F7FDC4E90001CC
:1029900017B00120BDE8F08FFDF74EFD554506D07C
:1029A000B44AB54BFDF748FDC4E900010AE04FF019
:1029B000D352B14BFDF740FD32463B46FDF73CFD9F
:1029C000C4E9000117B04FF0FF30BDE8F08FAB490C
:1029D000A942159978DB21F0004183468846A84A30
:1029E000A84BFDF7D0FD0022A74BFDF725FDFDF715
:1029F000E0FE0990FDF7BFFE06460F469C4A53468F
:102A0000FDF7C1FD43465A46FDF7BAFD80468A46AA
:102A1000984A994B30463946FDF7B5FD2A0D0125F8
:102A20000B9242465346FDF7ABFD032DC4E900016E
:102A300039D00B98C1F30A51401A05EB45111139F1
:102A4000814230DA9148C346784400EB0510CDF856
:102A50000CA00C90D0E9002330463946FDF793FDD9
:102A600002460B460491069058460399FDF785FDF2
:102A700080468A4602460B4658460399FDF77DFD7F
:102A8000049B069AFDF779FD83460C98039139461D
:102A9000D0E902233046FDF776FD5A46039BFDF749
:102AA0006CFD6D1CBDE707980028A2BF099817B000
:102AB000BDE8F08F616881F000416160099817B04E
:102AC0004042BDE8F08FFFE784461598C1F313013B
:102AD000C0F30A50A0F2F5304FEA601800F01F066C
:102AE000C6F12000139000200690079041F4801E4C
:102AF00005206D4676B1664A08EB00017A4452F82B
:102B0000213002EB8101B3404A68139922FA01F1A6
:102B1000194305E05F4908EB0002794451F822109F
:102B2000A1FB0E27A1FB0C131A449A4234BF0123C8
:102B3000002303EB070A05EB8003D3E901B70F4439
:102B40008F4234BF0121002193448B4411B193453E
:102B500002D903E0934501D2012100E00021C3E93D
:102B600001B7514445F82010011EA0F10100C1DC5D
:102B70000298059F00F10050800F12900298DDE945
:102B800003568000FDF7F7FD834628460D91FDF7BB
:102B900003FE6FF01D02FDF7D7FDCDE90E013046B3
:102BA000FDF7FAFD6FF03D02FDF7CEFD80468A4647
:102BB0003846FDF7F1FD6FF05D02FDF7C5FD0746F4
:102BC000424653461191FDF737FCDDE90E23FDF730
:102BD00033FC5A460D9BFDF72FFC00250E465A4646
:102BE00028460D9BFDF7C9FCDDE90E23FDF7C5FC6A
:102BF00042465346FDF7C1FC3A46119BFDF7C0FC27
:102C0000DFF898A0244A5346FDF7BDFC07468846E6
:102C1000234A244B31462846FDF7B5FC3A46434645
:102C2000FDF70AFC074688464FF0A8425346314656
:102C30002846FDF7A8FC3A464346FDF7FDFB159AEA
:102C400012F0004F04D0129A81F0004152421292C9
:102C5000C4E90001129817B0BDE8F08FFB21E93FED
:102C60007CD90240FB21F93F7370032E8A19A33BE4
:102C7000000040543163621A61B4D03DFB213941F8
:102C800083C8C96D305FE43F0000E03FE40E000000
:102C9000600E0000420E0000182D4454FB21F93D47
:102CA0003326A611460B113C2DE9FF4D21F00048BB
:102CB00007460C46B8F1795F08DAFDF77AFD00287F
:102CC00001BF0020324904B0BDE8F08D3A462346EA
:102CD00010461946FDF757FC054602462D480E469C
:102CE0000B460621784400F05DF82A463346FDF78E
:102CF0004AFCDDE9022382468B4638462146FDF731
:102D000042FC04460F4652465B4628463146FDF7D4
:102D10003AFC22463B46FDF730FC07468A464FF018
:102D2000FF3228463146FDF70FFD1B4A90450ADA6F
:102D30003A465346FDF721FC04B00022BDE8F04DB1
:102D4000134BFDF71DBC154A4245A8BFA8F5001559
:102D50004FF00004B8BF124D22462B46FDF70DFC84
:102D60000646884622462B4600200949FDF705FC09
:102D700004460D463A46534630464146FDF7FDFBB4
:102D800004B022462B46BDE8F04DFDF7F9BB00002C
:102D90000000F03F180C00003333D33F0000E93F40
:102DA0000000D23F2DE9F0414F1E00EBC701044661
:102DB000D1E9000115461E4637F006020DD02A461D
:102DC0003346FDF7E0FB7F1E04EBC703D3E9002386
:102DD000FDF732FB37F00602F1D1022F25D0042F88
:102DE00013D0062F18BFBDE8F0812A463346FDF701
:102DF000CAFBD4E90A23FDF71FFB2A463346FDF739
:102E0000C2FBD4E90823FDF717FB2A463346FDF73A
:102E1000BAFBD4E90623FDF70FFB2A463346FDF73C
:102E2000B2FBD4E90423FDF707FB2A463346FDF73E
:102E3000AAFBD4E90223FDF7FFFA2A463346FDF741
:102E4000A2FBD4E90023BDE8F041FDF7F5BA00008C
:102E50002DE9FF4D054621F0004084B00C46B0F14D
:102E6000795F0BDA2846FFF746FD042808BF00F01B
:102E70006FF8284608B02146BDE8F08D2A460B467B
:102E80001046FDF780FB06460F462A462346FDF70F
:102E90007AFB804626488A4632463B4605217844DE
:102EA000FFF780FF83461098029160B3214A224BBE
:102EB00040465146FDF767FBCDE900015A464046C2
:102EC0005146029BFDF75FFB82468846DDE906011D
:102ED0004FF0FF32FDF738FC52464346FDF74DFBFD
:102EE00032463B46FDF74FFBDDE90623FDF745FB88
:102EF000DDE90023FDF741FB08B02A462346BDE883
:102F0000F04DFDF73DBB0B465A4630463946FDF7BE
:102F10003AFB084A084BFDF78FFA42465346FDF745
:102F200032FB08B02A462346BDE8F04DFDF784BACF
:102F3000560B0000495555555555C5BF0122FDF7A3
:102F400003BC0022134610461146FDF78EBB00005D
:102F5000024A00201107FDF7F7BB000001FDFFFF4B
:102F600002E008C8121F08C1002AFAD17047704752
:102F7000002001E001C1121F002AFBD170470000B0
:102F80000149086070470000AC00002070B5094C92
:102F90000E462146FDF760F9054621463046FDF70D
:102FA0005BF904462846FFF7BBF82046BDE87040B1
:102FB000FEF766BF00007A4400B5244B21F00042C2
:102FC00087B09A42DCBF0022134629DD204B9A428B
:102FD00008D140B94FF00100FFF7D2FFFFF7B1FF72
:102FE00007B000BD03DBFFF7A9FF07B000BD02AAD1
:102FF000FFF796FC10F0030104BF0DF1080C9CE8EC
:103000000F000DD0012001290ED0022914D00DF19E
:10301000080C00909CE80F00FFF71AFF07B000BDF6
:10302000FFF742FE07B000BD0DF1080C00909CE8D0
:103030000F00FFF70DFF05E00DF1080C9CE80F00F5
:10304000FFF732FE07B081F0004100BDFB21E93FF0
:103050000000F07F08B5FDF7D9FEFFF7A0F8FEF7F6
:1030600047FF7848416941F001014161406900F042
:1030700001000090FEF7DCFF744D73484FF4E13718
:1030800028600024C5E901744FF00C08EC60C5E924
:103090000448AC612846EC61FEF77CFD00B1FEE718
:1030A0006A4E6B4840363060C6E90174F460C6E988
:1030B0000448B4613046F461FEF76CFD00B1FEE7F0
:1030C0006248644980300160C0E90174C460C0E9AD
:1030D00004488461C461FEF75DFD00B1FEE7FEF7C0
:1030E00051FFFEF77BFF002211462520FDF70AFF66
:1030F0002520FDF7FBFE002211462620FDF702FFEA
:103100002620FDF7F3FE002211462720FDF7FAFEE8
:103110002720FDF7EBFE002211461020FDF7F2FEFE
:103120001020FDF7E3FE002211460F20FDF7EAFE16
:103130000F20FDF7DBFE4548C038FEF737FA43485D
:103140008038FEF733FA2868C16841F01001C16089
:103150003068C16841F01001C1603C48002140382E
:10316000FEF716FC394804214038FEF711FC3748B9
:1031700008214038FEF70CFC34480C214038FEF79B
:1031800007FCDFF8D490314E09F1040707F1040A77
:1031900007F1080BD83EA7F11C0500BF00F072FB39
:1031A00000F040FB2879C0073CD02C48DFF8A8C0CD
:1031B00052460068C9F8000029480CF1100C5B4623
:1031C0000068386027480068CAF800002648006890
:1031D000CBF8000025480068CCF800005FF0000044
:1031E00019F800103154311817F8008081F8048064
:1031F00012F8008081F8088013F8008081F80C80B4
:103200001CF80080401CC0B281F810800428E7D36D
:103210000E490A203075D839152201F5AC70FEF739
:103220000EFE2C712879800704D5D5E9041000F032
:1032300023F82C710E4801680E480068FFF7A6FEBF
:10324000ACE7000000100240003801408801002077
:1032500000440040004800401800002048000020C2
:103260004C00002050000020540000205800002096
:103270003C000020400000202DE9F0475A4C8146D8
:10328000884620780025A0B1E169606BFCF7B2FFA9
:10329000216AFCF7AFFF0646D4E90901FCF7AAFF53
:1032A0003146FCF7D9FFE064A169FCF7D5FF206542
:1032B000257041464846FCF745FF4FF0FF37394639
:1032C000FDF708F80646606541464846FCF78CFF66
:1032D000A06546484FF400020168454891420068E5
:1032E00003DB904201DB434905E0434B994208D39D
:1032F000984206D341493046FCF77CFFC4E91105EA
:1033000010E0914201DB98420AD2994208D39042E0
:1033100006DB3B4930466564FCF76CFFA06401E0C6
:103320006564A564216DA06CFCF764FF0646A0638C
:103330003146E068FCF706FF0546E0603946304656
:10334000FCF7C8FF2946FCF7FDFEE065FCF7F0FF3F
:1033500000F018FAFCF7FFFFE063E06DFCF7E8FF10
:10336000FFF72AFEFCF7F7FF01462064606C064673
:10337000FCF740FFE16C0D46FCF73CFF6168FCF791
:10338000E1FE60603046E16BFCF734FF2946FCF754
:1033900031FFA168FCF7D6FEA06029463046FCF755
:1033A00029FF216B0D46FCF757FF20612946A06BD2
:1033B000FCF752FF6061A16AE068FCF7E9FF04D204
:1033C000E16AE068FCF710FF0AE0A06AE16880F0BB
:1033D0000040FCF7DDFF04D2E16AE068FCF7B2FED2
:1033E000E060BDE8F08700004400002034000020C9
:1033F000380000200000C841000080800000C8C1E3
:10340000000018421CB506216A46435C5418491C4A
:1034100004F8063C0A29F8DB0B2101AA435C541886
:10342000491C04F80B3C0E29F8DB9DF800009DF8C0
:103430000310303800EB4002C2EBC01001EBC001BA
:103440009DF80100642250439DF8022002EB8202A5
:1034500000EB420001449DF804009DF8072030383D
:1034600000EB4003C3EBC01002EBC0029DF8050067
:10347000642358439DF80630A1F5A05103EB830364
:1034800000EB43001044A0F5A050D038D0390844D8
:1034900000EBD07040101CBD1CB505216A46435C92
:1034A0005418491C04F8053C0929F8DB0A2101AA33
:1034B000435C5418491C04F80A3C0E29F8DB9DF8BB
:1034C00000009DF80310303800EB4002C2EBC01042
:1034D00001EBC0019DF80100642250439DF80220D9
:1034E00002EB820200EB420001449DF804009DF8CB
:1034F0000720303800EB4003C3EBC01002EBC002E2
:103500009DF80500642358439DF80630A1F5A051AD
:1035100003EB830300EB43001044A0F5A050D03828
:10352000D039084400EBD07040101CBD8179407A3E
:1035300030383039084400EBD07040107047417982
:10354000C07930383039084400EBD07040107047F3
:1035500000B50939092935D241792D290CD0817955
:103560003A2922D0C1793A2922D0017A3A2922D0A7
:10357000417A3A2922D026E0C1793A2909D0017A44
:103580003A2909D0417A3A2909D0817A3A2909D0D1
:1035900019E0FFF7CBFF13E000F098F810E000F01F
:1035A00015F80DE0FFF72EFF0AE0FFF7C8FF07E070
:1035B00000F0BAF804E000F049F801E0FFF76CFF12
:1035C000024600E00022104600BD00001CB50621A6
:1035D0006A46435C5418491C04F8063C0929F8DB88
:1035E0000B2101AA435C5418491C04F80B3C0E291A
:1035F000F8DB9DF800009DF80210303800EBC002A7
:1036000002EB001001EB80019DF801009DF80630EF
:1036100000EB80020C4800EB420211449DF80420AC
:10362000303A02EBC20404EB021203EB82029DF873
:10363000053003EB830300EB43001044084400EB28
:10364000D07040101CBD0000F0FDFFFF1CB505212F
:103650006A46435C5418491C04F8053C0829F8DB09
:10366000092101AA435C5418491C04F8093C0C299F
:10367000F8DB9DF800009DF80210303800EBC00226
:1036800002EB001001EB80019DF801009DF806306F
:1036900000EB80020C4800EB420211449DF804202C
:1036A000303A02EBC20404EB021203EB82029DF8F3
:1036B000053003EB830300EB43001044084400EBA8
:1036C000D07040101CBD0000F0FDFFFF1CB50621AE
:1036D0006A46435C5418491C04F8063C0829F8DB88
:1036E0000A2101AA435C5418491C04F80A3C0C291D
:1036F000F8DB9DF800009DF80110303800EB8002E7
:103700006FF02F0000EB420211449DF804209DF859
:103710000530303A02EB820200EB420018440844C4
:1037200000EBD07040101CBD1CB505216A46435CFF
:103730005418491C04F8053C0729F8DB082101AAA4
:10374000435C5418491C04F8083C0A29F8DB9DF82E
:1037500000009DF80110303800EB80026FF02F0060
:1037600000EB420211449DF804209DF80530303AE8
:1037700002EB820200EB42001844084400EBD070D8
:1037800040101CBD00B5254B21F0004287B09A4285
:1037900003DC0022134600922BE0214B9A4208D111
:1037A00040B94FF00100FFF7EBFBFFF7CAFB07B092
:1037B00000BD03DBFFF7C2FB07B000BD02AAFFF7A5
:1037C000AFF810F003014FF001000DD0012914D023
:1037D00002291AD00DF1080C9CE80F00FFF764FADB
:1037E00007B081F0004100BD0DF1080C00909CE88D
:1037F0000F00FFF72DFB07B000BD0DF1080C9CE892
:103800000F00FFF751FA07B000BD0DF1080C009052
:103810009CE80F00FFF71CFBE2E70000FB21E93FFB
:103820000000F07F10B5134CA07801281AD1E17880
:103830001148FFF78DFEE0608000FCF757FD0F494F
:103840000968FCF7D7FC0E49FCF706FD2061002053
:10385000E2780146084B01E01954401C9042FBDB22
:10386000E170A1700449BDE810401422A1F1940058
:10387000FEF76EBA000000205C02002078000020F5
:1038800000803B4610B5134C207801281AD161788E
:103890001148FFF75DFEA0608000FCF727FD0F498F
:1038A0000968FCF7A7FC0E49FCF7D6FC6061002014
:1038B00062780146084B01E01954401C9042FBDB42
:1038C000617021700449BDE810401422A1F1C000CC
:1038D000FEF73EBA000000204802002078000020D9
:1038E00000803B46000000000000000001020304CD
:1038F00006070809000000000102030400000000A0
:103900004C5555555555A53F7751C1166CC156BFFD
:103910009015CB19A001FA3EAD529C804F7E92BE0D
:10392000C4B1B4BD9EEE213ED43888BEE9FAA8BD2C
:1039300000004054FB21F93F3163621A61B4D03D6D
:103940000000601A61B4D03D7370032E8A19A33B46
:103950000000002E8A19A33BC14920259A837B3998
:1039600000000000000000006E83F9A22915444EFB
:10397000D15727FCC0DD34F5999562DB4190433C7B
:10398000AB6351FE61C5BBDE3A6E24B7E0D24D4257
:10399000EA2E49061C92D1091CEB1DFE3EA729B157
:1039A000F53582E88444BB2E26709CE9417E5FB4E5
:1039B00039D69139F43953838B5F849C3B28F9BD08
:1039C000FF97F81F0F9805DE8B112FEF1F6D0A5A16
:1039D000CF7E366DB709CB27663F464F2DEA5F9EF7
:1039E000C7BA27757BF1E5EBF739073DEA92528AB2
:1039F000B15FFB6B085D8D1FA6F810111111813F9F
:103A0000D561C119A0012ABF7DFEB157E31DC73E94
:103A1000EB9C2B8AE6E55ABE7CD5CF5A3AD9E53DD8
:103A2000403A000800000020B0000000602F0008AD
:103A3000F03A0008B000002060060000702F000877
:103A40000000000000000000000000000000000076
:103A50000000000000000000000000000000000066
:103A60000000000000000000000000003F730D0A8D
:103A70000000000000000000000000000000000046
:103A80000000000001000000000000000000000035
:103A90000000000000000000000000000080E34380
:103AA0000000003F0000F04100009B43DC0F494054
:103AB000DC0FC9400AD7A33B00008044000000008F
:103AC00000000000000000000000000000000000F6
:103AD00000000000000000000000000000000000E6
:103AE000000000000000000000A24A0400000000E6
:04000005080000ED02
:00000001FF
